:100000006F10305D130000001300000013000000AB
:100010001300000013000000130000001300000094
:100020001300000013000000130000001300000084
:08003000130000007300100032
:100038000000000000000000661D0000681D0000B0
:10004800000000006A1D0000000000000000000021
:100058006C1D00006E1D0000000000000000000084
:10006800701D000000000000721D0000000000006C
:10007800741D0000761D0000781D00007A1D000028
:100088007C1D00007E1D0000801D0000821D0000F8
:10009800841D0000861D0000881D00008A1D0000C8
:1000A8008C1D00008E1D0000901D0000921D000098
:1000B800941D0000961D0000981D00009A1D000068
:1000C800442400009E1D0000A01D0000A21D000089
:1000D800A41D0000A61D0000A81D0000AA1D000008
:1000E800AC1D0000AE1D0000B01D0000B21D0000D8
:1000F800B41D0000B61D0000B81D0000BA1D0000A8
:10010800BC1D0000BE1D000080260000C21D0000AE
:10011800C41D0000C61D00004C240000CA1D0000BC
:10012800CC1D0000CE1D0000D01D00000000000006
:080138000000000000000000BF
:10014000397101436EC619A0397141536AC866CA34
:1001500062CC5ECE19A0397101535AD056D252D416
:100160004ED64AD826DA22DC06DE3301614082828E
:1001700041114AC026C222C406C68282B24D410144
:10018000024D924C224CB24B4101024B924A224A00
:10019000B2494101024992442244B2404101828065
:1001A0003D432A876373C3029377F700BDEFADE544
:1001B000937606FF3D8ABA960CC34CC30CC74CC756
:1001C0004107E36BD7FE11E28280B306C3408A0683
:1001D0009702000096966780A6002307B700A30643
:1001E000B7002306B700A305B7002305B700A30493
:1001F000B7002304B700A303B7002303B700A3028B
:10020000B7002302B700A301B7002301B700A30082
:10021000B7002300B700828093F5F50F9396850011
:10022000D58D93960501D58D61B7939627009702DA
:10023000000096968682E78086FA9680C1171D8F09
:100240003E96E374C3F8A5B78280938781F605478D
:100250002398E7848280EFF2BFF1B71500209385E1
:10026000A5920D45EF10102E4205938781F641812E
:100270002399A7880547239AE78829BFEFF25FEF04
:10028000B766004083A746C413874186C207C1836F
:100290002310F7000357070083D7C1880111138487
:1002A00041867D8F1377072019CF41671307F7DF4A
:1002B00023A2E6C49386818503C70600050713774A
:1002C000F70F2380E60003570400F98FC207C187A8
:1002D00063D40700EF1060338357040003D7C1884D
:1002E000F98F93F7074089CFC1679387F7BF3767C7
:1002F00000402322F7C4B707002083A78705829711
:100300000357040083D7C1887D8F9316270163D8D4
:1003100006003967B76600407D1723A2E6C403577D
:100320000400F98F13973701635B0700BD673767D8
:100330000040FD172322F7C40145EF00F00503D765
:10034000C18883570400F98F13974701635F070043
:1003500083A7818263810710EF00C074BD67376790
:1003600000409387F77F2322F7C48357040003D705
:10037000C188F98F93F70710E9CFC167376700404D
:100380009386F7EF2322D7C4032687C49386C185BB
:100390009315060163DA050A9042050690C28C4265
:1003A0000D466375B60A032607C4FD17218A59EE68
:1003B000032607C4938501867D8E3765004090C172
:1003C000138701860146130305C0A1489315260033
:1003D00033886500032808000010A2953378F800E0
:1003E00023A005FF0506E31316FF1043136616004E
:1003F00010C310437D8E2320C5C41043799A10C3C7
:100400001843F98F2320F5C437670040832747C47A
:1004100093F70740E5DFC1679387F7BF3765004073
:10042000C1652322F7C4130505C08147FD15214886
:100430001397270010103A96032606FE2A97850781
:100440006D8E10C3E39607FF23A006001D45EF0045
:10045000A074056181B30945EF00007401B7EFF2A4
:100460009FCF938781849443138741841843938457
:100470008184938941846398E60083C701840145A0
:1004800093F7F70FA5CF138A01859C4003270A0035
:100490001A079A07938541CA1385418ABA953E95F2
:1004A000EF20C06283270A009840C14693870185E8
:1004B0000507138941CA6313D700014798C09440C8
:1004C00003A709006394E600238001843717002006
:1004D000130707978346070093F6F60F8DC2230094
:1004E00007008C4313060004130510089A05CA95EB
:1004F000EF10D0020545EF10A060054579B1984393
:10050000C14605076313D700014798C3984383A7E3
:1005100041850545E314F7FE2386A184C5B703474B
:1005200005009D476316F70005472380E18A828016
:10053000EFF21FC493874184944313878184184347
:1005400013844184938481846397E60083C7018484
:1005500093F7F70F95EB1C402E86AA859A07138513
:10056000418A3E95EF3020691C4085071CC0184029
:10057000C1476314F7002320040018409C40631512
:10058000F70005472380E18431B1EFF27FBE397176
:100590001306000481450A8521318A850545EF103F
:1005A000607A0A85930500049D3F8D650545EF102F
:1005B000C04F2161C5B6EFF2BFBB9387418594431D
:1005C00013870185184313844185938401856397BC
:1005D000E60083C7C18493F7F70F9DCF1C40938536
:1005E00041CA9A07BE951306000413051008EF10C0
:1005F000E0720545EF10C0501C4085071CC0184034
:10060000C1476314F7002320040018409C40631482
:10061000F70023860184BDBEB71700200547238855
:10062000E796D5BFEFF2DFB47937ADB683C7E10CFB
:1006300081C7154723A8E1868280114723A8E18658
:100640008280828091E5854733B5A70006058280C8
:100650000945828019E583A701881D472398E70093
:100660008280138541838280EFF29FB0E5371DB60B
:10067000EFF21FB083A601880546BA8483C706003F
:1006800093F7F7076392C70483C726001307200276
:100690006387E7021307100209456391E7023714E5
:1006A0000000130484A680CE0145029483A701882C
:1006B000014580CF2399070002940145E1BC37141E
:1006C00000001304A4A5C5B7130710020945E3975A
:1006D000E7FE03C71600630BF70093070002E31F52
:1006E000F7FC3704000013048466C9B73704000020
:1006F0001304446565BF03A70188930610020145F2
:1007000083471700034707001377F707631AD700DB
:100710009387E7FD93F7F70F05453335F500060599
:10072000828003A70188930610028347070093F78E
:10073000F707639FD7000347170093070002631969
:10074000F700EFF2FFA213854183EF10106799B411
:100750008280EFF2FFA183A7018823850700312E55
:10076000B7670040856637660040938707C0938669
:10077000F6F0930506C298439107758F23AEE7FE06
:10078000E39BB7FE9307F00F2322F6C4EF10005748
:100790008145014523A80186EF10104C5145EF100B
:1007A000B05685450545EF10304BEDB2EFF25F9C3A
:1007B000116783A70188034737CB014523950700BD
:1007C000A384E700EF10E026930500200145EF1019
:1007D0004027930500080145EF10E0409305000411
:1007E000014537040020EF100042130444058345FF
:1007F000C4020145EF1020478345C4020145EF10B4
:100800006048C1450145EF10C0258D650145EF10D9
:10081000C02937670040032607C0C1679386F7FFEA
:100820009317160163DF0700832707C0F58F8566DE
:100830009386F6F0F58FB16693860608D58F232050
:10084000F7C037670040832707C093F7070485C3C5
:10085000832707C0C166FD16F58F85669386F6F07F
:10086000F58FA1669386060CD58F2320F7C09305DC
:1008700000600545EF10E01C9305000C0545EF10E6
:100880008036930500100545EF10E037930500040E
:100890000545EF10403D930500040545EF10803EEF
:1008A000930500020545EF10C01B8D650545EF104F
:1008B000C01F37670040832747C093F7070485C3ED
:1008C000832747C0C166FD16F58F85669386F6F0CF
:1008D000F58FA1669386060CD58F2322F7C0376764
:1008E0000040032647C0C1679386F7FF93171601A0
:1008F00063DF0700832747C0F58F85669386F6F090
:10090000F58FB16693860608D58F2322F7C093052D
:1009100000600945EF10E012930500140945EF103F
:10092000802CA1450945EF100034930500020945CC
:10093000EF10201381450945EF102017376700405D
:10094000832747C093F7070485C3832747C0C16641
:10095000FD16F58F85669386F6F0F58FA166938672
:10096000060CD58F2322F7C081450D45EF10600D91
:10097000930500180D45EF1000279305001C0D4549
:10098000EF106028930500040D45EF10C02D93056E
:1009900000040D45EF10002F930500020D45EF10E8
:1009A000400C8D650D45EF104010376700408327E0
:1009B000C7C093F7070485C38327C7C0C166FD1668
:1009C000F58F85669386F6F0F58FA1669386060C03
:1009D000D58F2326F7C0376700400326C7C0C167FD
:1009E0009386F7FF9317160163DF07008327C7C0BD
:1009F000F58F85669386F6F0F58FB16693860608C7
:100A0000D58F2326F7C00145EF00B031054723A855
:100A1000E1866FF02FF8EFF2AFF59385C180512595
:100A20006FF04FF7EFF2CFF4938541809D2D6FF07B
:100A30006FF683A7018883C53700914763EDB70040
:100A4000EFF20FF3B7070020938747088E05BE9596
:100A5000892D6FF02FF401458280EFF26FF19385BD
:100A6000018281256FF00FF3EFF28FF09385818182
:100A70000D2D6FF02FF282808280B767004005470E
:100A800023A0E7C423A007C4096723A207C4130750
:100A900007C02396E1880967130707C023A0E7C4AE
:100AA00001458280B767004083A707C437670040CD
:100AB0004168C207C1838146130307C07D1893852F
:100AC000410AA148139626003305660008412E9678
:100AD00085063375050108C2E39616FF93E60740C5
:100AE0002320D7C493E61740F99BC207C183232074
:100AF000D7C493E607402320D7C4B766004003A7B6
:100B000046C41377074065DF41671307F7BF23A289
:100B1000E6C44168376700408146130307C07D186B
:100B2000A148139626003385C50008411A9685060C
:100B30003375050108C2E39616FF93E7874023202B
:100B4000F7C4832707C4C207C18393E74700232064
:100B5000F7C40D4723A8E186828003C7E10C938781
:100B6000018701C7154798C382800547EDBFEFF2A3
:100B70002FE037640040832704C4C207C183ED9B84
:100B8000C207C1832320F4C4C93FB167938707F02C
:100B90002320F4C46FF00FE0EFF28FDD9D47138444
:100BA00081866303F50008C01C401547636DF7009C
:100BB00011678A07130747D8BA979C43828783A790
:100BC000418781E76D37994711A095471CC039A02F
:100BD000793F91471CC0054723AAE1866FF08FDB60
:100BE00089472302F4008D47D5B783474400FD179A
:100BF00093F7F70F2302F4008347440093F7F70FAE
:100C0000F1FF9147E1B737670040832707C4C20768
:100C1000C18393E707012320F7C495471CC0A94768
:100C20002302F40065BF83474400FD1793F7F70FD5
:100C30002302F4008347440093F7F70FC5F33767A7
:100C40000040832707C4C207C183BD9BC207C1837D
:100C50002320F7C499471CC023AA018641B7EFF2AD
:100C60002FD101E983A7018805472398E7006FF09A
:100C70006FD283A781889C43829703A501882905A9
:100C8000FDB7EFF2EFCE01E983A70188054723986E
:100C9000E7006FF02FD083A781889C47829703A538
:100CA00001883105FDB703A7018809E589472318A5
:100CB000F7008280EFF2CFCB239E018683470700A7
:100CC0001384C18793F7F7079DEB0347970093774A
:100CD000070281C789472300F4001377070483477D
:100CE000040001CF93E717002300F40083A7818855
:100CF0009C4B829722856FF0EFC9F99BF5B785462B
:100D00001385C187E389D7FE89460145E395D7FE60
:100D100003475700B7660040938606C09377F700F5
:100D20008A07B69762079C4361876359070093F768
:100D300007034147E39CE7FA85477DB70D67F98FC5
:100D40000567CDBFEFF22FC183A401883E8A03D48B
:100D5000040139E803C7840091476317F704138738
:100D6000818714438547639CF602B767004083A7D9
:100D700007C5B73600208906C207C183B697860724
:100D800023A00700930700032398F188232007007E
:100D9000114983A70188238427016FF00FBFC14742
:100DA0002398F1881D49F5B783D74401114963F3AE
:100DB0008700094963F387003E849C4C42044180CC
:100DC00022858297AA8A0145EF0010662286AA85AD
:100DD0005685EF00B041A2850145EF00D06883D76A
:100DE00004010D67818F2398F40083D724013E947A
:100DF000930700032398F188239984002397E188BF
:100E000049BF83A7018883C6518103C737000945BD
:100E100063E3E60283C6270099EE83D6470081EE9E
:100E2000EFF20FB52385E70083A78188DC43829723
:100E300001456FF02FB68280EFF28FB383A7018850
:100E400003A74188411183C53700184F03C55700D8
:100E5000029783A7018803C7A7001DCB2AC60DE907
:100E600003C7470015E783C727009DE383A7818851
:100E7000DC47829783A70188324503C75700A385C3
:100E8000E70003C737002386E70041016FF08FB00A
:100E90000945E5BF83A7018883C6070093F6F607D7
:100EA00091EA03C797001377F7FDA384E700014792
:100EB0003A85828009460947E39CC6FE83D627000F
:100EC000E5FA83C64700EDF6EFF28FAA03C6570096
:100ED00037670040130707C01375F6F71314250092
:100EE0003A946206144061866357060493F606033B
:100EF00083C541810947637DB5029DCA83C7A700A9
:100F000085CB1C40635C060293F707034147639C53
:100F1000E7001374F50F2285EF00F04993050003F5
:100F20002285EF00103483A78188DC4B829701472C
:100F30003A856FF02FA60D67F98E5DBFC164FD1471
:100F40000D67E58FF98F0567E39FE7FC1DEDB70798
:100F5000002083C50708EF00F0521C40717713078B
:100F6000F7F8F98FC2070D67C183B98F617713074F
:100F70000708D98FC207C1831CC08D661840658FD2
:100F8000758FE302D7FA1CC0D5BFEF00903F1C401D
:100F900071771307F7F8F98FC2070D67C183B98F0F
:100FA000617713070708D98FC207C1831CC08D66FC
:100FB0001840658F758FE308D7F61CC0D5BF03A610
:100FC0000188B7670040938707C08346560093F5B2
:100FD000F6F713972500BA97E2069843E18663D1A6
:100FE00006061377070303C84181094563F905091C
:100FF00083552600C9E541C70347A60049C3EFF260
:101000002F97984363D30604E5769386F6FB758F96
:1010100042074183E1761347070193860608558FFF
:101020004207418398C34146944393F60603639C69
:10103000C60083A781889C4F829701456FF08F95EA
:101040000D65698F4DB798C3C5B7F1769386F6F8ED
:10105000758F420785664183358FE1769386060852
:10106000558F42074183416698C37D160D6585659E
:101070009443F18EE98EE38EB6FA98C3D5BF828091
:10108000EFF20F8F03A701888347970093E70702CA
:10109000A304F70083A78188DC4F829701456FF096
:1010A0006F8F03A701888357270101E903D5450006
:1010B0001D8D2318A7000145828088413E958280BE
:1010C000EFF20F8BB707002083C507080145EF003B
:1010D000703B83A7018803C58700A1476318F5000B
:1010E00005672397E18841472398E1885D1513350B
:1010F00015006FF02F8AEFF2AF8703A901883766DA
:101100000040832706C58346890025474111638B2C
:10111000E60441641307F4FFB7360020F98F910607
:10112000B69786078043798C06043294834704007F
:101130002300F90083471400A300F900035544007D
:10114000EF00F03A2311A9000355840003A9018898
:10115000EF00F0392312A9000357C40083A70188C8
:101160002393E70083A7018805472384E70003D77B
:10117000670003C417006314070E03C70700137743
:10118000F70745EF25476315E400A53935E515A8B0
:101190001547631BE40403873700635B0700A1471F
:1011A00003A701882304F700213F41016FE09FFE60
:1011B00003C727006DF703D7470075F383C7A70060
:1011C000F9FFB767004083A707C537370020090735
:1011D000C207C183BA97860723A00700130700033D
:1011E0002398E18899476DBF0D476317E40283C6D2
:1011F00037000547638DE60083A741882285DC4BD5
:1012000082970D47A547E30DE5F845DD49BF83D734
:101210004700FDF3B5359DBF0547E31FE4FC03C759
:101220003700E31B87FC03D7470079F783C7970094
:1012300093F70702F1D3B93991BF85476317F700D8
:10124000AD47E31BF4FACD3E91B78946E316D7FAD2
:10125000E303F4FE8D47E311F4FA953305BF194714
:10126000631BE40203C707001377F7077DE383C717
:101270002700854603A741886395D7005C4FF1CBD3
:10128000A1A089466394D7001C53D5BF8D466392B5
:10129000D70C5C53EDB775E003D727005DEBD8435F
:1012A000C1769386F60F758FB70602006313D70ACF
:1012B00003C707001377F7071DEF83D74700D1EB6C
:1012C000B7170000938767CA03A701880145231950
:1012D00007001CCF8297014583A70188C166FD16D0
:1012E00003D707016304D70889466304D500631850
:1012F000070E2147ADA885466310D70203A7418892
:1013000003C557008145184F029721E583A701883F
:1013100083C7A700D5F735A88946631CD70203C742
:101320005700B7660040938606C01376F700931700
:101330002600B6979C4393168701E18663DC06027C
:1013400093F7070383C641816375D60013770707B8
:1013500071D303A7018883A74188034517009C4BDD
:1013600082978D47E31AF5F683A7018825472384E2
:10137000E7001DBD8D66F58FF1B72147631CE400C2
:1013800083C7070093F7F707E9F7B71700009387BC
:10139000E7C51DBF2947E31EE4FA03C707008546DA
:1013A0001377F707E317D7FA03C7A7005DD303D76F
:1013B000270045F3D843C1769386F60F758FC16633
:1013C000E319D7F803A7418803C557008145184F93
:1013D000029741F1B7170000938727C8F5B58386B8
:1013E000070063D5060483A6418883D5670003C63A
:1013F000C6022EC6324593160601C182637AE50005
:1014000032472398E700239AD700EFF0BF9369BBD8
:10141000E37BB7FE6375D70023AC0186EDB7336776
:10142000C70275F3054623ACC186F1BF0D4723847F
:10143000E7000D672397E18885BBEFE2DFD103A4C6
:101440000188A144834784001387E7FF1377D70FF0
:1014500049C31387D7FF1377D70F5DEB1C4C9DCF84
:1014600083540401B1C80357440163739700BA84DD
:10147000C204C1802685829783570401AA89014549
:10148000858F2318F40083572401A6972319F400AD
:10149000EF00607BAA8526864E85AD2B835704011D
:1014A00081CF0D67814501452397E188EF00A07B3F
:1014B000130700032398E1888357040183564401EE
:1014C00003A7018863EED7008D472304F700834408
:1014D000870083A7018823849700DD366FE0FFCA69
:1014E00099C39547DDB799472304F700B7670040D4
:1014F00083A707C5B73600208906C207C183B69700
:10150000860723A00700930600032398D188C1B75C
:101510001D47A144E39FE7FA83A74188DC478297F0
:101520004DBF03C3418137660040C1650568A168AE
:101530000147130606C0FD151308F8F09388080844
:101540006369670013650508B767004023A6A7C451
:10155000828093162700B2969C42ED8FB3F7070165
:10156000D98FB3E717019CC20507D9BFEFE25FC06F
:1015700083A7018883C687001387E6FF1377D70FF9
:1015800019EFEFF02FFC83A7018803C7870083A71B
:1015900001882384E700EFF0BFB26FE0BFBF1946B8
:1015A0002147E396C6FE83C617001547639EE600F3
:1015B00003C707001377F70701EB03C5370095371B
:1015C00083A781889C53829783A741889C478297F1
:1015D000214775BF8280EFE2BFB99387410C23A0FA
:1015E000F18809472384E700370700209306470561
:1015F00023A2D188B70700209387470A23A4F18844
:101600008327470582976FE0FFB8EFE2FFB34111F0
:10161000370A0020B70A0020E17923170100130AD6
:10162000CA01938A8A0393890908B765004083A792
:1016300045C41397070141832392E186139707015D
:10164000635F071683D741863A84BD8B238FF1866B
:10165000938605C06398073203A705C09387E18886
:10166000420741832390E70003D70700938601894F
:10167000137707032390E60003D707008D662166E2
:10168000758F2390E70003A705C0A5679387F7FB35
:101690007D8F83A705C0B1669386F6F8F58F8966BE
:1016A000B58F1347070293160701130606085D8FCF
:1016B000518FC18223A0E5C033E7360142079384EE
:1016C000E188138901893766004093050002418350
:1016D000832606C093F606036396B60EB3E737017A
:1016E000C166C20737660040FD160D658965C18376
:1016F000032706C0130406C0758F698F6317B70CE4
:1017000083D74186C18BF9EB1C40A5691387F9F09B
:10171000F98F1CC0A13D18401440B1679387F7F8BA
:10172000F58F83D604009389F9FB3377370113963D
:101730003601635406008566B58F83D60400139680
:101740002601635406008966B58F83560900C18A55
:1017500099C2134707018356090093F6060299C2FE
:1017600013470702216693160701130606085D8FCB
:10177000518F376600402320E6C06177C18213078E
:101780000708558F42074183832606C08355090009
:1017900093F60603639EB602617713070708D98F95
:1017A000C166C20737660040FD160D65C183032779
:1017B00006C083D50400758F698F631EB700410191
:1017C0006FE01F9C2320E6C021B72320F6C00DB791
:1017D0002320E6C055BF2320F6C0D1BF1C40856B37
:1017E000C207C1832317F1008357E1001397470114
:1017F0006353070C1C401387FBF8F98F1CC0EFF0F4
:101800009F8F1840A5679387F7FB14407D8FB167C2
:101810009387F7F8F58F83D6040013963601635447
:101820000600B3C7770183D60400139626016354DC
:1018300006008966B58F83560900C18A99C213478D
:1018400007018356090093F6060299C2134707025F
:10185000216693160701130606085D8F518F3766C0
:1018600000402320E6C06177C18213070708558F27
:1018700042074183832606C08355090093F6060379
:101880006398B602617713070708D98FC166C2074C
:1018900037660040FD160D65C183032706C083D55A
:1018A0000400758F698FE30CB7F02320F6C0F5B7FD
:1018B0002320E6C0C1B78357E100C207C187E3D642
:1018C00007D61C401387FBF8F98F1CC0EFF0FFB65A
:1018D0001840A5679387F7FB14407D8FB167938706
:1018E000F7F8F58F83D6040013963601635406008B
:1018F000B3C7770183D6040013962601635406000C
:101900008966B58F83560900C18A99C213470701BA
:101910008356090093F6060299C21347070221660F
:1019200093160701130606085D8F518F3766004036
:101930002320E6C06177C18213070708558F42074D
:101940004183832606C08355090093F606036398F6
:10195000B602617713070708D98FC166C2073766D9
:101960000040FD160D65C183032706C083D5040022
:10197000758F698FE305B7E42320F6C0F5B7232000
:10198000E6C0C1B71397270036971443C206C18239
:101990002317D1008356E100C206C18663DD06002D
:1019A000FD1714438A070566D6971306F6F89C437D
:1019B000F18E14C382978357E10093F70708E386FB
:1019C00007C683C7E187B7660040938606C01397B2
:1019D00027003697FD1714438A07D297256613060A
:1019E000F6F09C43F18E14C3829781B1B737002083
:1019F0000506BE950586860511E28280834715009F
:101A0000034705009105A207D98F239EF5FE09051E
:101A10007D16DDB7B73700200506BE95058686051D
:101A200011E282809C4109057D16231FF5FE910578
:101A3000C5BF619942054181B767004023A8A7C48B
:101A40008280B7670040938707C00A053E951C4116
:101A500065771307F798F98FDD8DC205C1810CC139
:101A60008280B7670040938707C00A053E951C41F6
:101A700065771307F7FBF98FC20713F70501C183D9
:101A800019C393C7070113F7050219C393C70702C8
:101A9000617713070708D98FC207C1831CC118419A
:101AA00013770703E31CB7FE8280B7670040938774
:101AB00007C00A053E951C4171771307F7F8F98FA7
:101AC000C20713973501C183635407000567B98FB7
:101AD00013972501635407000967B98F61771307CE
:101AE0000708D98FC207C183C1661CC1FD160D66E8
:101AF0001841758F718F6313B70082801CC1CDBFF1
:101B0000B7670040938707C00A053E951C4165777B
:101B10001307F7FBF98FC207C183617793C70703E8
:101B200013070708D98FC207C1831CC1930600039E
:101B30001841137707036313D70082801CC1CDBF00
:101B4000B7670040938707C00A053E951C4171772F
:101B50001307F7F8F98FC2070D67C183B98F617753
:101B600013070708D98FC207C183C1661CC1FD16C0
:101B70000D661841758F718F6313C70082801CC179
:101B8000CDBFB7670040938707C00A053E95144153
:101B9000C1671387F7FF9397160163DD07001C41A8
:101BA000F98F05671307F7F0F98F316713070708F7
:101BB000D98F1CC18280B7670040938707C00A0590
:101BC0003E951C4193F7070491CF1C4141677D1757
:101BD000F98F05671307F7F0F98F21671307070CD3
:101BE000D98F1CC18280B767004083A707C50E0547
:101BF0008581C207C1833E95B73700203E95060513
:101C000086050CC18280B767004083A707C50E0513
:101C10008581C207C1833E95B737002091073E9565
:101C2000060586050CC18280B767004083A707C5FB
:101C30000E05C207C1833E95B73700203E950605C5
:101C4000035505008280B767004083A707C50E05CE
:101C5000C207C1833E95B737002091073E95060520
:101C6000035505008280B767004083A707C50E05AE
:101C7000C207C1833E95B737002089073E95060508
:101C80000CC18280B767004083A707C50E05C20755
:101C9000C1833E95B737002099073E959307E0032F
:101CA000060563FEB70093D75500FD8981E5FD1752
:101CB000C207C183AA072167D98F1CC1828093D72D
:101CC0001500858991C18507AA07C5BFB767004080
:101CD00083A707C50E05C207C1833E95B73700200D
:101CE00099073E95060508411375F53F8280935785
:101CF00085001375F50F22055D8D828037670040E2
:101D0000F177232207C4938707F02396F188B16700
:101D1000938707F02320F7C401458280EFE24FC587
:101D200032849374F507268542042E894180ED3D67
:101D30002286AA854A855D392685A2852D370145EB
:101D40006FE04FC5EFE2CFC29374F50726852E8969
:101D5000B53F2A842685C53DAA8522864A855D39F8
:101D600022856FE02FC301A001A001A001A001A066
:101D700001A001A001A001A001A001A001A001A05B
:101D800001A001A001A001A001A001A001A001A04B
:101D900001A001A001A001A001A001A001A001A03B
:101DA00001A001A001A001A001A001A001A001A02B
:101DB00001A001A001A001A001A001A001A001A01B
:101DC00001A001A001A001A001A001A001A001A00B
:101DD00001A097F1FF1F9381E13917110020130132
:101DE00061A2172500001305250797E5FF1F9385BE
:101DF00065211386018463FAC5008322050023A0B0
:101E0000550011059105E3EAC5FE1385018493850C
:101E1000C10F6377B500232005001105E36DB5FE02
:101E2000FD42739002BC8D42739042809302800801
:101E300073A0023097E2FFFF9382422093E23200C8
:101E400073905230EF004001970200009382825E4F
:101E50007390123473002030B71702409843B706CE
:101E6000FFF81367170098C3D843758FD8C39843FA
:101E7000B706F7FEFD16758F98C39843B706FCFFAB
:101E8000FD16758F98C3D843B70681FFFD16758F71
:101E9000D8C337079F0098C7B746024003A70680FC
:101EA0001367070123A0E680D843B706C1FFFD16DC
:101EB000D8C3D843D8C3D84313670740D8C3D8433F
:101EC000758FD8C3D843B7063C00558FD8C3984305
:101ED000B7060001558F98C3984393166700E3DD5A
:101EE00006FED843B7160240719BD8C3D843136788
:101EF0002700D8C32147DC42B18BE39EE7FE8280F6
:101F00005841032805004C45370601409307064019
:101F10003E979346F8FFB1C583250640F58D2320F3
:101F2000B640D043F18ED4C31443B3E6060114C3C4
:101F3000184190479346F7FF758E90C7D047F18EB2
:101F4000D4C7144541466399C6009447D98E94C7B7
:101F5000D447558FD8C78280B6979443558F98C37E
:101F600082801C43F58F1CC38280B707014023AADF
:101F7000A74082809C4513F7070113F8F70001C7BB
:101F8000D8413368E80037270240145B3707000F59
:101F9000758F45EF85462389D18837170140631730
:101FA000E50003D7050035832390E50083D50500C0
:101FB00013F7F50F39C318418146854E3D4F930FF6
:101FC000800293028004214E3396DE00B3F8C500F0
:101FD000631116039398260033131F011343F3FF75
:101FE0003377E300B318180133E7E8006397F70786
:101FF00050C98506E39AC6FD18C11307F00F637533
:10200000B70454412146854E3D4F930F8002930201
:102010008004414EB398CE0033F715016392E80275
:102020001317260001173313EF001343F3FFB376A2
:10203000D3003317E800D98E6395F703232A1501DF
:102040000506E319C6FD54C1828037170140E31F1E
:10205000E5F403C7218939DBA9B7E39C57F810C918
:1020600049BFE39F57FC23281501D9BFB71701408B
:102070006316F50083C7218991C3B5810CC982809D
:102080009387418994430347050089E683472500E8
:10209000920731A8944305466391C60483472500FF
:1020A0000346150092076314D60093E707F8B7E6D6
:1020B00000E093F7F70FBA962380F64085469357D2
:1020C00057003397E6005441ADC6938707048A074B
:1020D000B7E600E0B69798C382808C438946639345
:1020E000D50283461500834725006365D6008A061E
:1020F000B69779BF9386E6038A06B69793F7F70FEC
:10210000920765B790438D46631ED600834615003F
:10211000834725006364D6008606D9BF9386C60729
:102120008606E1BF94439147E39AF6F8834715008A
:1021300085B79387070661BFB7170240D843B70634
:1021400040FFFD16758FD8C3D8435A05598DC8C3B3
:102150008280371702405C439146B18B6385D7007C
:10216000A1466386D706B7177A00938707201CC15C
:10217000371602405C42370700201307870C918313
:10218000BD8BBA9783C607001C41B3D7D7005CC18B
:102190005442A1829D8ABA9683C60600B3D6D70060
:1021A00014C55442AD829D8A369703470700B3D7C2
:1021B000E7005CC558423983937637001387018363
:1021C000369703470700B3D7E7021CC982805C43F8
:1021D0005843C166C983BD8B758F8907C546639314
:1021E000D700C94701EF3747024003270780418BDB
:1021F00009CF37177A001307072021A837170240A5
:1022000058439316E700E3D606FE37173D00130741
:102210000790B387E702A1BF99C5371702401C4F4B
:102220005D8D08CF8280B7170240984F1345F5FFA8
:10223000798D88CF828099C5371702405C4F5D8DBC
:1022400048CF8280B7170240D84F1345F5FF798DEC
:10225000C8CF8280EFD2DFF183560501F577FD17F5
:10226000F58F83D6650003D7C5007971D58F231804
:10227000F5008356C500FD779387379FF58F83D68A
:1022800045002A842EC6D58F83D68500D58F83D668
:10229000A500D58F2316F50083574501C207C183DA
:1022A00093F7F7CFD98F231AF50068085D35B74744
:1022B000014093870780B245631DF404A2578356FB
:1022C000C4006547B387E702C206C186984163D45C
:1022D000060406070356C4004206B3D7E7021307F5
:1022E00040064186B3D6E702B3F7E702920663568B
:1022F00006028E0793872703B3D7E70213F7770009
:10230000B367D700C207C1832314F40045616FD0BF
:102310007FE892576DB70A0775BF92079387270327
:10232000B3D7E702BD8BD58FF1BF81C98357C500F5
:102330000967D98F2316F50082800357C500F97706
:10234000FD17F98FC5BF13F7F50F85471583B395B3
:10235000B7006319F7009307C500984301CED98DE4
:102360008CC38280894693074501E318D7FE930703
:102370000501E5B793C5F5FFF98DDDB793F5F51FB9
:102380002312B5008280035545001375F51F828026
:1023900013F7F50F85461583B397B6006313D7027D
:1023A0000357C500F98F03570500014542074183D4
:1023B00081CB0545A181B315B5006D8F3335E000A4
:1023C000828089466315D70003570501E1BF035793
:1023D0004501C9BFEFD2DFD901110945B13B8545A0
:1023E00037058000893DEFF00F9F930740120544A9
:1023F00028002314F10022C623050100EFF05FC876
:1024000037050400EFF07FB6B70704003EC80808A0
:10241000C1473ECC22CE02CAEFF09FAE9307A00385
:1024200028002314F100EFF0BFC505616FD09FD6DF
:10243000EFD21FD4EF102020C528693FEFE02F8294
:102440002D2EEDBFEFD09FE3730020303705040041
:10245000EFF0BFB173002030EFD29FD1AA842E8459
:1024600011458545553BB1CCB766004083A706C4EE
:1024700041677517F98F23A0F6C4B717014003A76A
:102480004780B716F0FFFD16758F23A2E78003A7DC
:10249000C780F9769386F67F758F23A6E78003A71A
:1024A0004780B7460400558F23A2E7803747024094
:1024B0008327078021C893E727002320F7806FD068
:1024C0007FCD37670040832707C4B716F0FFFD169E
:1024D00093E72700C207C1832320F7C4B717014041
:1024E00003A74780758F23A2E78003A7C780F976EB
:1024F0009386F67F758F23A6E78003A74780B736BC
:10250000030055B7F59B55BF85660147938606FACC
:1025100083A7C182B3D7D702B387A7026363F7004B
:10252000828001000507EDB7EFD29FC401118545F8
:102530001145EFF07FCE854537050200EFF0BFCFA4
:1025400091472312F100371401408D473EC44C00DF
:10255000E147130504803EC6EFF0DFA1A147231237
:10256000F1004C0093078004130504803EC6EFF091
:102570007FA0F16737440040938707203EC80C08CE
:10258000B7070C00130504403ECC02CA231E01000D
:10259000EFF05FCC130504408545413B05469305AC
:1025A0005052130504404533B7E700E037074000B9
:1025B00023A2E71005616FD0FFBDEFD27FBB834739
:1025C00055004111231201000547638AE70881C7BE
:1025D0000947638EE7082314010083474500054738
:1025E000638AE70881C70947638AE7082313010064
:1025F00003471500834705002316010022075D8F5E
:10260000834725001964C2075D8F83473500E207C1
:10261000D98F3EC0B1472315F10073100480B7076E
:1026200000209387870D239007402391074005677B
:1026300023920740BA97239307803745004023949D
:1026400007808A85130505402395078013048408B5
:10265000EFF05FC07310048041016FD0BFB39307E8
:1026600000602314F10085672312F100BDB79307C2
:102670000040C5BF8D672313F1009DBF8967E5BF8B
:10268000411122C6374400409305505213050440BF
:1026900026C4EFF0FFCF39CD13050440EFF0BFCED5
:1026A000B70700201387870D035707409306F03FB5
:1026B0009387870D63E0E60403D727401375F50F72
:1026C0004207418393061700C206C1822391D74077
:1026D0003E972300A70003D727409306004063944A
:1026E000E6002391074003D70740050742074183CF
:1026F0002390E740B744004093057072138504406F
:10270000EFF01FC931CDB70700209387870D05670C
:102710003E9703576780138481F64207418331C790
:102720000357A48013850440420741839306170092
:10273000C206C182BA972315D48083C56740EFF0E3
:10274000FFC38357A480130700406314F7002315C9
:10275000048083576480FD17C207C1832313F4806C
:102760003244A24441017300203001469305707247
:1027700013850440EFF03FBDE5B7EFD27F9FB7046C
:1027800000201387840D8567BA9783D707859384C4
:10279000840DC207C183138481F6BDCB83D7044067
:1027A000C207C183EDC783D70440C207C183231783
:1027B000F4840357E4849307000463F4E7002317C9
:1027C000F484014705669305F03F8357E48463442E
:1027D000F7081967731007808356E48483D7044091
:1027E00013078708958FC207C1832390F4407310A5
:1027F0000780231804840356E484B71500209385CA
:10280000658E13053008EFF06FD10D45EFF04FAF37
:1028100083574489C207C18391CB035724898356C8
:10282000648093070040958F63D2E70E83576480DE
:10283000C207C18399CF3745004013050540835730
:10284000C50093F7070891E7054693057072EFF00E
:102850009FAF6FD03F9483D74440C207C183938614
:102860001700C206C1822392D440A69783C60700F0
:10287000B387E400B29793F6F60F2387D78083D708
:10288000444063F4F5002392044005073DBF83579D
:10289000E48413070004E31DF7F6231704840146BC
:1028A000A9BF83578480C207C18393861700C206DD
:1028B000C1822314D480B386E400B29683C62685F1
:1028C000A69793F6F60F2383D7408357848063F44B
:1028D000F50023140480050783572489E343F7FC9C
:1028E0001967731007808356248983576480130700
:1028F0008708B697C207C1832313F480731007803B
:102900000D45231A0488EFF0AFA30DB70147056604
:102910009305F03FD1B7EFD21F84AA842E892944B2
:102920008949CA852685EF003067631635017D1415
:102930001374F40F7DF46FD05F850CC18280EFD2E9
:102940003F834111AE84AA856800C53F6C001545E0
:10295000D93785476306F500014541016FD09F8354
:102960002A84A6856800D13F6C0035456D37E31594
:1029700085FE8145394545377D1513351500F1BF75
:10298000EFD20FFF214741112A846319E500138715
:10299000818914430545638CB6000CC36800713F00
:1029A0006C001375C400853F7D151335150041017A
:1029B0006FD04FFEEFD2CFFBAE84B70500FF9385FB
:1029C000050F41112A84E98D21455D3F09E5014547
:1029D00041016FD02FFC01E893878189D8430545D9
:1029E000E30897FEC4C3A6856800813F1375C40041
:1029F0006C001365150005378547E31AF5FC814522
:102A00003945113F7D1513351500D9B7EFD24FF673
:102A1000AE84B70500232A84938525050145593FD7
:102A200011C5A6852285213F3335A0006FD08FF6D2
:102A3000B717014003A7078093860780419B23A017
:102A4000E78003A707801367370023A0E780854747
:102A5000DCCA8280EFD2CFF1411185451145EFF0FC
:102A6000AFFB85452145EFF02FFB89473714014027
:102A70002312F100930780023EC64C008D471305D8
:102A800004803EC4EFF00FCF85472312F1004C00C5
:102A900093078004130504803EC6EFF0AFCDC14715
:102AA0004C00130504802312F100EFF0AFCC41017C
:102AB0006FD04FEEFD5741652380F50005058280FC
:102AC000FD5741652380F50005058280EFD24FE771
:102AD000834705007D47797193C607086366D70071
:102AE000D13F45616FD08FE9138707061377F70F42
:102AF0009306E00563E4E600E137E5B713871500C8
:102B00003ACA2380F5007547AE84E36FF73011674A
:102B10008A071307C7D9BA979C432A8982878347B4
:102B200015001D4713852500638EE70A6361F704CE
:102B300009476387E708636DF70005476389E70680
:102B4000014537040200A380A4000904229551BF67
:102B50000D476380E7081147E394E7FEB74500009F
:102B600019469385C5E4EF1000091945D9BF13072D
:102B7000100F6382E708636CF7001307000FE391FF
:102B8000E7FC930710032381F40005455DBF13079D
:102B9000E00F6381E7081307F00FE393E7FA930769
:102BA00000042381F500A3810500094559BFB745FD
:102BB00000002546938545E1EF10E003254551B718
:102BC000B74500004946938505E2EF10C00249452C
:102BD0008DBFB74500003546938545E3EF10A00152
:102BE000354585B7B74500001546938545E4EF1098
:102BF00080001545B9B7930700042381F5009307BA
:102C00002004A381F500BD472382F500A3820500BF
:102C1000114505BFC14785BF8347150089CF0547CB
:102C2000638BE700FD57A380F5003705020005051B
:102C30004164050421BF03472900B717014093876A
:102C40000780058B19C71307000298CBA3800400E7
:102C5000E9BF13070002D8CBD5BF034715000549CC
:102C600081476360E908371401402380210F8947B9
:102C70002312F102C1498D474C10130504803ED444
:102C80004ED6EFF02FAF4C10130504802312210312
:102C9000EFF04FAE4C101305048023123103EFF018
:102CA0006FAD130900024C10130504802312210399
:102CB000EFF04FAC4C101305048023122103EFF00A
:102CC0006FAB894513050480EFF04FBA85451305B6
:102CD0000480EFF0AFB9C14513050480EFF00FB9E0
:102CE0008547A380F40011A42380010EEFF09FD646
:102CF0000545A38004002DBFB705FA0537F500E0B0
:102D000091051305C5D0EFF07FD085472381F400EE
:102D1000A3800400094529BF8347450003473500C8
:102D200083492500A2075D8F83475500034965004D
:102D300013FA1900C207D98F6209034415003369D9
:102D4000F900630B0A00B71701401377140093874B
:102D5000078079C3094798CB93FA2900638B0A004F
:102D6000B717014013772400938707804DCB0547A1
:102D700098CB139B8901135B8B41635B0B00B717E7
:102D80000140135774009387078049CF414798CB80
:102D9000630D090413F849001356140093552400D9
:102DA00013555400935674003717014093F90902E4
:102DB00063080A00832787808583858BE31AF4FEE6
:102DC00063870A0083278780858BE393C7FE6303AD
:102DD0000800F9FD6383090061FD63580B00832738
:102DE00087809183858BE395F6FC37170140832616
:102DF0008780832787801307078018478607858287
:102E0000898B858A0E07D58F13770708D98FA38002
:102E1000F4003705060021BD0947D8CB35BF05476B
:102E2000D8CB81BF4147B705FA0537F500E0D8CBCD
:102E300091051305C5D0EFF07FBD99BF034725006D
:102E4000834715002207D98F0347350042075D8F5E
:102E500083474500E2075D8F19E7FD57A380F50022
:102E600037050400E9B3B75725029387F70F938618
:102E7000010E63FAE7008547A380F6008547DCC2B0
:102E8000A3800400F1BFB7A74A049387F71FBA973E
:102E9000B3D7E702A3800600094605476385C7004C
:102EA0000D4733D7E702D8C2E1BF034415009305AD
:102EB000250019E0130400102285EF0030011305EE
:102EC0007400A38004000D810505C9A8834715007F
:102ED0001387010E93F6370089838506858B230CB3
:102EE000D700A30CF700A3800500416589B3A38038
:102EF000050083491500138B250093072500854A9B
:102F00000544FD5B37190140054CFD1963977901B4
:102F1000131504013365550121BB03C50700138A4E
:102F200017009374F50399E093040004931C850142
:102F30009D0493DC8C418D8063DE0C028327098025
:102F4000C19B2320F9808327098093E787002320F2
:102F5000F980232889815A86D285EF00407B6394CB
:102F60000900EFF0FFAC050463DB0C00269BA69A7A
:102F7000D28761BF2AC6EFF0BFAB3245E9BF269AC0
:102F80002694FDB7FD57A380F5009306250003475F
:102F900015007D5605457D176316C700420513656C
:102FA000150079B183C7060093F7F70399E39307F8
:102FB00000049D078D838507BE963E95E9BFFD57AA
:102FC00003451500A380F50001B7FD5719BB034762
:102FD00015009387010E2386E700034735008346DB
:102FE00025002207558F2398E700034755008346A5
:102FF00045002207558F2399E700A3800400370579
:10300000050035B103C7010E930715003ECC854777
:103010001304350083492500938D010E6315F74293
:103020001387018A138C350023000700814A014D64
:10303000014502C81389018A094B054A63970904AF
:1030400085466315D50263040D3C83D90D01094AF9
:103050004C103945EF004074631845396388090006
:1030600003470900FD191377F70F7DD3C24723816A
:10307000A400A380F400E2473305F440D2474205A0
:10308000330CFC403365850165B6834C040093071F
:1030900014003EC693F52C00638B0526630F0D0AC2
:1030A00093F51C0183DB0D01639E45034C1066857F
:1030B000E5256319650563880B0083450900FD1B41
:1030C00093F5F50FE5D532448346040093F52600C9
:1030D000638A0530C18A639706300504FD19E395BC
:1030E00009FEB9BF4C103945452D631C6501638845
:1030F0000B0003470900FD1B1377F70F65D7014D40
:10310000D9B7014DE31145FD925513D88500230031
:10311000BC00A3000C0113D80501E18123010C01BF
:10312000A301BC0013084C0063080D0893958C01A3
:10313000E1856A8563D2050883A58D00210C13D52E
:103140008500230EBCFEA30EACFE13D50501E18164
:10315000230FACFEA30FBCFE6A8593F50C0103D8C8
:103160000D0193F81C00F1C183452400834B14002A
:1031700093075400A205B3E57501834B34003EC6A6
:10318000C20BB3E5BB00834B440003D42D01E20B1B
:10319000B3EBBB00638608028145668542CEED2B0A
:1031A000631E65017248E30008F2834509007D183B
:1031B00093F5F50FF5D101BF428C45B7E31545F105
:1031C00083D80D014C10668546CEF923AA85631875
:1031D0006503F2486389080003480900FD18137865
:1031E000F80FE30108FE83A64D011258B3F606015D
:1031F0006389DB0213E505011375F50FE9B503A833
:103200004D01925833781801E31F45FDE38D0BFD06
:1032100079D8034809007D141378F80FE30208FAFF
:10322000D9B7E39245EB814AB1A8638B0806E31C4A
:103230000DFE8145668542CE8523631C650172487B
:10324000E30F08EA834509007D1893F5F50FF5D1E2
:103250009DBDE31A45E793968C01E18663D106187C
:1032600003A78D00814A054D935687002300EC008B
:10327000A300DC009356070161832301DC00A30156
:10328000EC00110CC247834609009385F9FF8507BE
:103290003EC893F6F60FE39806E2AE89324479BB56
:1032A0004C10668542CECD29631C65017248E30C43
:1032B00008E0834509007D1893F5F50FF5D121B598
:1032C000E31345E193968C01E18663D2060283A65F
:1032D0008D00110C93D58600230EDCFEA30EBCFEE0
:1032E00093D50601E182230FBCFEA30FDCFE9256AC
:1032F000110C93D58600230EDCFEA30EBCFE93D5E5
:103300000601E182230FBCFEA30FDCFE29BF63038D
:103310000D0483DB0D014C103945BD29631B65018C
:10332000E3830BDA83450900FD1B93F5F50FE5D523
:1033300059BBE31A45D91257110C93558700230E38
:10334000ECFEA30EBCFE935507016183230FBCFE68
:10335000A30FECFE83452400034714009307540099
:10336000A205D98D034734003EC64207D98D0347D5
:10337000440062074D8F3AD293F50C0291C523AAFF
:10338000ED00014D0545FDBD03DD0D014C106685C9
:103390002121631B6501E3080DD2834509007D1DD2
:1033A00093F5F50FE5D5A1BBE31B45D593968C01AD
:1033B000E186854A63D3060203A78D00854A110C76
:1033C00093568700230EECFEA30EDCFE93560701F6
:1033D0006183230FDCFEA30FECFE014D65B5814A2E
:1033E000054D4DB51504DDB90547E311E5C8125784
:1033F000110C93568700230EECFEA30EDCFE9356B1
:1034000007016183230FDCFEA30FECFE85B1E38F80
:103410000AC483D90D01094A81453945B52EE31700
:1034200045C5E38509C403470900FD191377F70F64
:1034300065D72DB98347040013F727001DC3C18B3F
:103440008DE30504FD19E39709FEE247A38004001C
:10345000238104003305F4404205136525006FF015
:103460002FFD1504C5B703C7010E8547938B010EC9
:103470006318F7169387018A034A350023800700F3
:1034800083472500220A13844500336AFA00938A91
:10349000018A63050A14034D450093772D008DEBD7
:1034A000930C55008149894D03DB0B0163153A0FDD
:1034B000094AFD5B81453945C524631C45077D1BD1
:1034C00063097B0783C70A0093F7F70FE5D795A039
:1034D00093771D009DC783D90B01094B81456A85F0
:1034E000652C631C65016386090483C70A00FD1906
:1034F00093F7F70FE5D781492DA885478149631ACE
:10350000F5028149854C894D63169A0193771D0018
:1035100091C3394D03DB0B014C106A85B52C631642
:10352000B50563080B0083C70A007D1B93F7F70FEF
:10353000E5D7D247A380340193D98900A381A400A1
:10354000238134013305F4408347490037040400E4
:10355000898B89EB034439008347290022045D8C61
:1035600005044A04418D6FF0AFEC7D1AE31395FD1D
:1035700092571104850913D78700A30EE4FE13D7D1
:103580000701230EF4FE230FE4FEE183A30FF4FEF4
:10359000E31C0AF679BF03C71C0083C70C00910C1B
:1035A00022075D8F83C7ECFFC2075D8F83C7FCFFD7
:1035B000E207D98F3ED24C106A85F92A8546631BF3
:1035C000B501E3080BF683C70A007D1B93F7F70FDD
:1035D000FDD385B7E31FD5F48509F9B5014521BFB2
:1035E000A380050023810500A38105000D45A9BF27
:1035F00003C7010E85476315F7020347350083476C
:1036000025004C1022075D8F83474500C2075D8F60
:10361000834755000145E207D98F3ED2B52AF1BA5A
:10362000FD57A380F500E1BAFD5741652380F40002
:1036300005056FF00FCBEFC2BFB39387010E1307E1
:10364000400698CB0547239CE700239007001947C5
:103650002386070023AA0700D8C3EFF0AFBF6FC0CF
:103660007FB3B717014003A5878005898280B7170C
:103670000140058993870780054719C198CB82804F
:10368000D8CB8280B717014003A7078093860780B5
:10369000419B23A0E78003A707801367370023A07F
:1036A000E7808547DCCA8280B717014003A70780FF
:1036B00093860780419B23A0E78003A707801367B9
:1036C000870023A0E78085479CCA82800147814705
:1036D0007D5E37160140054889487D156313C50195
:1036E000828009E783C705002147850593F6170007
:1036F0001303068091CA23280301232A1681232855
:10370000168185837D17D1BF232A0301FDB7EFC240
:103710009FA41374F503411119E0130400041375F9
:10372000050819C5B71A014089492149814489A86A
:10373000B7190140094983C40500130A84FF8505B0
:1037400026852EC6EFF0BFF223AA298123A829815E
:103750007D148580B245630F44037DF00DA832C609
:1037600023AA3A81EFF0FFEF85801E0523A83A8156
:103770007D19138A0A80C98C7D14324663030900BF
:1037800079FC0506B3D42401A30F96FE59FC410130
:103790006FC0BF9F4DF0E5BFEFC21F9B37140140C4
:1037A000130404809387010E054B83C717008944D7
:1037B00023286401935C1500135C2500B38A8C01F7
:1037C00044C8935B3500AA9A04C82A892E8ADE9AD7
:1037D0009389010E638F0720EFF07FE944C8668567
:1037E00004C8EFF0DFE844C8628504C8EFF03FE8A2
:1037F00044C85E8504C8EFF09FE744C8568504C8F6
:10380000EFF0FFE644C804C8232A640144C804C892
:103810002328640144C804C8EFF01FE983CA890162
:103820003717014089479304078063900A0C094BBE
:1038300023AA6401EFF0FFE223A8640123AA640134
:103840002A84EFF01FE223A8640123AA6401AA8B53
:10385000EFF03FE1860B0A05B3EBAB0023A8640150
:1038600033E48B0085476314F41093772900C1CBB0
:10387000014B130C0002894B894C23AA9401EFF0F1
:103880005FDEAA9A135B1B007E0523A874017D1CD2
:10389000336B6501E3130CFE23AA7401EFF07FDCA8
:1038A00033C5AA0023A87401058911C1214463040A
:1038B0000A0023206A0183C789013716014009479E
:1038C0008DEBEFF03FDC137909086304090023A4B2
:1038D000090003C7C90041E3B7170140054723A802
:1038E000E7801375F40F6FC0BF89DCC89CC8FD1A50
:1038F0001DBF232AE6802328E680FD17D1B783C4A5
:103900008901B71601408947A9E0EFF0BFD7032B23
:103910000A00930B0002371C0140894A5A85EFF0D8
:103920001FD5232A5C8123285C81FD1BDA94130AAE
:103930000C80135B1B00E3930BFE2685EFF03FD357
:10394000232A5C8123285C81BDBF23AAF68023A89B
:10395000F680FD1455BFB717014085469387078051
:10396000D4CB8946D4CB94CB7D176DFFB5B7130765
:10397000E4FF759B83C7890111CF09479306F0FDCA
:10398000D8C898C8FD17E39DD7FEEFF0BFCF854795
:103990009CC881BF03C7990105EF3716014009474D
:1039A000B9E3EFF03FCE83C799019DD71379290082
:1039B000E31409F2B7170140054793870780D8CB76
:1039C000894613071002D4CB94CB7D176DFF29B71E
:1039D0001377290079D3130710028946D4C894C8F5
:1039E0007D176DFF5DBF232AE6802328E680FD1743
:1039F00045BFEFF0DFC744C8668504C8EFF03FC796
:103A000044C8628504C8EFF09FC644C85E8504C8F8
:103A1000EFF0FFC544C8568504C8EFF05FC544C841
:103A200004C8232A640144C804C82328640144C884
:103A300004C8EFF07FC783CA89013717014089475F
:103A40009304078063940A0C094B23AA6401EFF0E6
:103A50005FC123A8640123AA64012A84EFF07FC018
:103A600023A8640123AA6401AA8BEFF09FBF860BF1
:103A70000A05B3EBAB0023A8640133E48B00854750
:103A8000631CF40E93772900C1CF014B130C000285
:103A9000894B894C23AA9401EFF0BFBCAA9A135B0F
:103AA0001B007E0523A874017D1C336B6501E313A5
:103AB0000CFE23AA7401EFF0DFBA33C5AA0023A8D5
:103AC0007401058911C1214463040A0023206A019D
:103AD00083C789013716014009478DEFEFF09FBA80
:103AE000137909086304090023A4090003C7C90066
:103AF000E30407DEB7170140854693870780D4CBE0
:103B00008946D4CB94CB7D176DFFF9B3DCC89CC834
:103B1000FD1A3DB7232AE6802328E680FD1775BFEE
:103B200083C48901B71601408947A9E0EFF09FB52A
:103B3000032B0A00930B0002371C0140894A5A8567
:103B4000EFF0FFB2232A5C8123285C81FD1BDA940D
:103B5000130A0C80135B1B00E3930BFE2685EFF02A
:103B60001FB1232A5C8123285C819DBF23AAF68094
:103B700023A8F680FD1455BF1307E4FF759B83C788
:103B8000890111CB09479306F0FDD8C898C8FD17E5
:103B9000E39DD7FEDDBB03C799010DEF371601404A
:103BA0000947A1E7EFF01FAE83C79901E38607D26B
:103BB00013792900E31209D2B7170140054793870B
:103BC0000780D8CB894613071002D4CB94CB7D173E
:103BD0006DFF19B31377290071D3130710028946BB
:103BE000D4C894C87D176DFF55BF232AE6802328CB
:103BF000E680FD177DB7B3C7A5008D8B3307C500E1
:103C000081E78D4763EEC700AA876370E50A83C624
:103C1000050085078505A38FD7FEE3EAE7FE8280CE
:103C200093763500AA8791CA83C605008507850566
:103C3000A38FD7FE93F63700FDB79376C7FF1386A1
:103C400006FE63F0C70683A3050083A2450083AF89
:103C5000850003AFC50083AE050103AE450103A394
:103C6000850183A8C5019385450223A0770003A899
:103C7000C5FF23A2570023A4F70123A6E70123A829
:103C8000D70123AAC70123AC670023AE170193878E
:103C9000470223AE07FF75B790419107910523AE08
:103CA000C7FEE3EBD7FEE3E4E7F6828009026B0090
:103CB0000301000064090400000203000000092160
:103CC00010010001221D0007050103400001070546
:103CD0008103400001080B010202020100090401F6
:103CE0000001020201000524001001052401000268
:103CF0000424020005240601020705820308000AC5
:103D000009040200020A00000007058302400000C7
:103D100007050302400000001201000200000040FD
:103D20001604515010010102030100000600FF09B2
:103D300001A10119012940150026FF0075089540D1
:103D40008100190129409100C0000000240358009F
:103D500056002D004C0069006E006B0020004300EF
:103D60004D005300490053002D0044004100500015
:103D700012035800490056004E0031003900380047
:103D800037000000BE0B0000D00B0000E00B00006D
:103D9000EA0B0000060C0000260C00001E2B0000A1
:103DA000182C00005A2C0000E82C0000CE2F000038
:103DB000043000006634000028360000F0350000B2
:103DC0004C2C0000F82C000028360000283600009B
:103DD000283600002836000028360000182D000084
:103DE0003C2E0000AA2E0000CC2E0000842F0000E4
:103DF000BE2F0000CA2F0000283600002836000021
:103E0000283600002836000028360000283600003A
:103E1000EE2E00005849564E313938370000000068
:103E200058562D4C696E6B20434D5349532D4441D8
:103E300050000000303032323031313130303030EB
:103E40000000000056312E3000000000312E322ECE
:043E5000300000003E
:103E54001A033000310032003300340035003600DC
:103E640037003800390041004200000024060000F9
:103E7400480200004A020000D4150000D4150000D6
:103E8400D4150000D41500008A050000D4150000E4
:103E940056020000D4150000D4150000D41500000B
:103EA400D415000052070000AC07000022070000F0
:103EB400760A000070060000F606000044060000C2
:103EC400160A0000240A0000320A00000000000064
:103ED40040000000AC09002004000000703D000018
:103EE400120000004C3D00002400000000000020EF
:103EF4001A000000D41500002C060000D4150000A0
:103F0400D4150000D4150000780A0000D415000070
:103F1400420600003A06000000000000010203040B
:103F24000102030406070809000000000000000065
:103F3400000000000000000000000000000000007D
:103F4400000000000000000000000000000000006D
:103F5400000000000000000000000000000000005D
:103F6400000000000000000000000000000000004D
:104774000000000000000000010000000000000034
:104784000000000000000000000000000000000025
:104794000000000000000000000000000000000015
:1047A4000000000000000000000000000000000005
:1047B40000000000000000000000000000000000F5
:1047C40001000000AC3C00006B000000183D00003C
:1047D400120000000F010000093D00000900000064
:1047E4002C3D00001D00000001000000004495085D
:1047F4000204060800C201000000080004030904C2
:00000001FF
